:100000000018002049CA0000A5BD0000A7BD0000DF
:1000100000000000000000000000000000000000E0
:10002000000000000000000000000000A9BD00006A
:100030000000000000000000ABBD0000ADBD0000EE
:10004000B1BD0000B3BD0000B5BD0000B7BD0000EC
:10005000AFBD0000B9BD0000BBBD0000BDBD0000CC
:10006000BFBD0000C1BD0000D9AE0000C5BD00008D
:1000700059C60000C9BD000025AD0000CDBD00007F
:10008000CFBD0000E5B6000091CE000075CE0000A7
:10009000D7BD0000D9BD000005BC0000DDBD0000DB
:1000A000AFBD0000DFBD0000E1BD0000AFBD00003E
:1000B000E3BD0000AFBD0000E5BD000091C200003F
:1000C000F0B583B002920F4601900825BA48425F0E
:1000D0000621BA4E715E891A8B0EC9188911B84B68
:1000E00019700A23C35E705FC01A840E0019801154
:1000F000B44C2070C0B2C9B2002900D0F280B24A1C
:10010000002800D033811478B04A1378002B03D133
:10011000B94B1B789B0606D50020AA490870A84950
:10012000087010700146002904D1002802D170889F
:10013000002801D00CF0DEFDA548067801200090D3
:100140000298FF285ED0A348007801281FD000281D
:1001500041D1A2490878012802D100200870344614
:100160009F4B5A5700201872012A18DB611CCAB233
:10017000521A531E9A41B442019B01D2002A22D046
:100180001978029A91420ED2491C19701AE0002087
:100190002E2F1CD09049097800291CD117E0002A85
:1001A00003D421460FE018700CE0002C019D01D013
:1001B000611E08E02B78002B029A00D05A1E2A708C
:1001C000009A0A7001462E2F04D101200C46814965
:1001D000087000E00C4683480078401CC5B2854298
:1001E00001D00020C5430CF0A5FD002800D1054634
:1001F000E8B23D2804D3012076490870764908709A
:100200007848057078480670734D28780028019B5F
:1002100017D03846603805283CD93846423803287C
:100220004CD9212F00D171E02E2F3AD0812F64D0EC
:100230008E2F68D0BF2F00D0A2E000241C702C703D
:100240009EE060480078002813D01978091A4AB255
:100250000020002A00DC0146CAB2029DAA4200D357
:100260002946197057490870E0B2B04200D33446AD
:10027000594D18780028CCD0514800780028C8D0B3
:10028000241A60B2002800DC0024E0B2B042C0D3DF
:100290003446BEE7784400794000874402711D2649
:1002A0002B5B0298FF286BD028784142414129708E
:1002B000002865D147480121017061E07844007948
:1002C000400087440129354518780299884257D063
:1002D0002978002904D053E02878002850D11878D4
:1002E0000299884246D3002045E02878002847D16B
:1002F000187817E0002E20D142E0002028700098E6
:100300000CF0EEF93CE08E200CF0A6FD28780028D9
:100310002CD00020287033E01878002830D02978BD
:1003200000292DD1002801D0401E0290029822E021
:10033000002E25D0E0B2B04222D0287800281FD16C
:100340002A4900200870E1B2B14232D3044617E0D6
:10035000200615D0002E13D02878002810D123486D
:100360000021017020060AD0661E08E000200CF073
:10037000B7F905E0401C1870E0B2B04200D3344633
:10038000114804700020124908702878002801D014
:10039000022100E00121094B154A117059884A1EBB
:1003A00091410028009A00D10A461248027003B019
:1003B000F0BD641CE4E7C0464C0500206E0500203B
:1003C000680C0020670C00207E0C0020660C0020CA
:1003D000AD0C0020BF0C00206F0C00208C0C002006
:1003E0003A0C0020C40C0020CC0C0020BA0C0020D9
:0C03F000C70C00206E0C00204A0B0020FF
:0203FC00704748
:10040000FFFFFFFFFFFFFFFFFFFFFFFFFEFFFFFFFD
:10041000F0B595B0244902260E70244C07222146DF
:10042000059209F023FA0146214F3878401EC2B2E6
:1004300020461291FFF744FE1E4D2878411ECAB295
:100440000D2A0AD81C4BD340DA0706D048B28000E8
:100450001A4908580BF08AFF28780D2801D900F0B6
:1004600005FF247813944000784480884000874436
:100470000D00FD062B00FE005001FD06FD06620189
:100480005200FD06FD06FD06F00002030C480DF0CB
:100490002AFD0E203870601CC2B20A4807210DF0F8
:1004A000B5F800F0E3FEC046CB0C0020980C00200D
:1004B000B70C00205B0C00203127000000C30000B7
:1004C00024EF0000C8C20000F9480DF00CFD062022
:1004D0003870F84807780825F74928460DF00BFDD5
:1004E00063426341FD4EB07D4209FD49284609F053
:1004F00003FD4001B17D1F220A401018B075F07D48
:100500000025012C00D0ECE240B224210CF08EFD3D
:10051000F0753B46E6E2F3480DF0E5FC102038703C
:10052000F14800781190139840B20CF079FA139BBF
:100530000D900022072A01D100F098FE0D98811835
:10054000481CC0B214904000C9B21291994202D125
:100550000221E64C2170E14940181499102901D874
:10056000FC4900E0FC4945180E92D000083010907C
:100570000027032F6AD200201199B94201D0014609
:1005800001E0D5490978129A9A4200D00146CEB2CC
:10059000711E304688411499102955D87F21394061
:1005A000012921D000293CD140000F901098C6B2FB
:1005B000002420463146149A23460DF08CFC2878FE
:1005C0008009022800D901240F9B3046F6492246B3
:1005D00009F092FC3F21002800D0C843139B2A78E1
:1005E0000A4002432A702FE028781099C9B2800689
:1005F0008216452033460AF009FA139B002E23D0B9
:1006000028781521C9438006801616220CF096FD25
:10061000139B3F2101402878C022024050182870C7
:1006200012E001242A571098C1B2782033460DF009
:10063000FAFA002E139B07D028577C21C9437D224C
:100640000CF07CFD139B68707F1C92E70E9A521C85
:1006500070E7E6480DF047FC0A203870042C0E962F
:1006600000D94EE20CF000FD00252C464BE2E0489C
:100670000DF039FC11203870B948032101709A48F7
:1006800000780D90139840B20CF0CAF9139B0490B7
:10069000D8480F2B00D921E305465800D64C205EE0
:1006A0007D210A01424388031018C117490D4018E3
:1006B000C00A401981B2C90B401800B24010CF499E
:1006C00042184E2000210DF0C8FC139BCC48007846
:1006D000802800D011E30D98002800D00DE30520FC
:1006E00058437E49081857218900425C0499591AD9
:1006F0004900615A002A00D04942FF225E328154EB
:10070000090A8018417002200BF05EFF0CF038F9E6
:10071000F2E2BC480DF0E7FB05203870BA4800242F
:100720000470BA4E35781398002801D100F0CEFC41
:10073000234600F0D4FCB6480DF0D5FB0C203870F1
:100740008748032109910170674800781190139838
:1007500040B20CF065F908900024072C01D100F09C
:1007600085FD5D4800781490E0000830C5B2002790
:100770004C22384629460DF057FC08980019C6B29D
:10078000082E0F9401D8312100E038210818C2B298
:10079000052029460DF048FC099870434F49091877
:1007A0004B20C0000E9112900B5C13988642149C53
:1007B00000D03C46119E002E204600D03846C0B2E4
:1007C00000900F20109003400D202946914A0DF013
:1007D000D1FA022E204600D038460C90012E1494F7
:1007E00000D03C460D948C480E9C26181298205C34
:1007F000109908400CF092FC02280A960B9016D033
:10080000012820D0002100282ED17756252F34DB57
:10081000824961560C9AD2B2009282220192253FFF
:10082000FE223A407D31382A62D00B4662E07B4896
:10083000225C0C98C3B25020294609F087FD32781B
:100840000D98C3B25EE0002032560D98C3B2362038
:1008500029460AF0DBF8714822560C98C3B24D20A5
:1008600029460AF0D3F851E072566D4900912021D3
:10087000002A07910AD40D9F0AE0684822560C9876
:10088000C3B2632029460DF0CEF938E00D9F0F4327
:10089000FBB2D109514048B2401C82B249202946DE
:1008A0000DF0E3FA5D482056002807D40C9908E0C3
:1008B000D5F80000C70C002037ED00000C99079A0E
:1008C0001143CBB2C109414048B2421C6B202946BA
:1008D0000DF0A9F91AE0C046C70C00209A050020C7
:1008E000E7F400000FF700007E0C0020AD0C0020A4
:1008F0000A234B437AB26420294606F05BFE0D9F23
:100900003278FBB23620294609F020FD119814995F
:10091000129AA6180328084600D0002031780A0948
:10092000082A00D9521CC3B2682029460AF06EF882
:100930003C480078002800D19AE01498000600D1C5
:1009400096E01198032800D992E004A1085C4000C9
:100950008744C0467B020000E102000008203140CD
:10096000AD0C00203078109D28400E210CF05EFB6D
:1009700028403178F0220A40111831700CF0CEFB7B
:100980000B99814200D173E00020244960540A99F8
:1009900008706DE00B9803286AD8C0467844007947
:1009A0004000874403410348FFF6000000210A9CF1
:1009B00060565E2245E00B98032859D878440079A8
:1009C000400087440142484D144D60577C21C94383
:1009D0007D224AE030780009109C21460CF026FB6D
:1009E0003178214000010818307041E0E9FA000038
:1009F000B1FA000018FC0000C4040020DC0500006F
:100A0000BA0C002033FA0000BD0C0020B80C002006
:100A10007DF6000022EB00005602000057020000A5
:100A200076FB00006E0C002000200A9C2056152149
:100A3000C943162205E000200A9C20563121C943F3
:100A400063220CF07BFB207012E0FC4D60571521F7
:100A5000C943162209E0F94D605700215E2204E0E7
:100A6000F64D60573121C94363220CF067FB605596
:100A70000F9C641C71E6F2480578F2480DF033FAD9
:100A8000139C0A2C00D9A1E20CF0EEFA22461020A9
:100A90003870052C00D9EBE3002A02D1EA4809217D
:100AA000017051425141E948007800910821E84E17
:100AB0000A2732463B4608F08DFF1398012814950B
:100AC00001D000F04EFC1298602802D1B07A0DF0EF
:100AD00081FAF05731210CF0A9FAB0722B4600F0E0
:100AE00042FC2B46C2B26620102109F02FFC307E5A
:100AF0001399022953D140B264210CF097FA307651
:100B00004EE005240125CE4807780826D149304615
:100B10000DF0F1F92A4631321E20109631460DF0C3
:100B200083FA13981494844211973B4600D0002313
:100B300005206843C84A115C141801201290205601
:100B4000009300024218472010990CF0AAFC139958
:100B5000149D8D420E9E16D1C0483C2202703B204F
:100B6000C143002528460CF0E9FA21786278120288
:100B70005118081801B2002900DC28462070000A2C
:100B800060701399149D681C88423DD10220205644
:100B900013210CF04BFA1399A070012235E02F4677
:100BA000C2B2542018213B460CF084F8139DE81E75
:100BB00042424241B07D4007C00F2021A84CA047CF
:100BC000C007400FB17DFB220A401018B075281FE6
:100BD000424242410807C00F2821A047C007000F2A
:100BE000B17DF7220A401018B075681F4242424199
:100BF000C806C00F3021A047C007C00EB17DEF224C
:100C00000A401018B07531E300220529129B00D369
:100C100081233C20102109F083F803272846304324
:100C2000002213998842119B00D013461092E2577C
:100C3000002B304600D038460F9700905A201821DC
:100C40000CF076FEE070139D149F781BC01C43428D
:100C5000434122792020834909F04EF92071381D43
:100C6000A842119B109A00D01346002B0F9800D079
:100C70000646774C052D01D37B4800E07B482518BC
:100C8000AA5600964F2028210CF052FE724F7A7916
:100C900077496254FA78774BE254FA79764BE2540A
:100CA0003A7A764BE254764AA35C7F261E407B7AE2
:100CB000DB01F318A35428707878A0733878607338
:100CC0006018B9794170B878E072387912990840A3
:100CD000217BFE220A4010182073C7E2102B0CD192
:100CE00068480078802808D1674819210170802061
:100CF0000CF0B2F808F0C4F8139B7C200390C043BA
:100D00000C9000263246072E00D14EE1049832188E
:100D1000D4B2F00008900830102C00D146E11196B2
:100D200061005A4B595A0B91052110946143484B6D
:100D30005C18572189000991675CFF210A915E3197
:100D4000655C61180E914E78C1B21292501CC2B20D
:100D500000200F91149003460DF0BDF830024019A9
:100D6000002F00D140420B9943187F217E22002F93
:100D70000846119E00D010461BB20C9D4B35AB426D
:100D800000DB2D20002F00D00A46322B109F00DC04
:100D900002464B200F990DF047F92D48817D022026
:100DA000084001D07D2100E064210791139B129A35
:100DB000002801D0039800E06320C0430690059806
:100DC000089901430891AD20400020180B900A9823
:100DD0005C3020180A90099820180990149C042C63
:100DE00000D3E0E00D986040394659400143149427
:100DF00001D0002401E012480478E5B2684268415D
:100E0000234909784E424E41064302D10020214930
:100E100008702B2000010E49085C002700283FD0F5
:100E200001210E9A5156090212788A1891B20029AE
:100E300036D0824230DD074632E0C046570200001D
:100E4000C70C002053FA0000AD0C00207E0C0020DF
:100E50009A0500206DF10000300C0020BE0C00202F
:100E600029CF0000CFF400007203000071030000DE
:100E7000AB0200007B020000AD020000AE020000E9
:100E800073030000BA0C00206A0C0020C404002088
:100E90006E0C0020BD0C00204742BA4200DB0F461A
:100EA00038B20A210CF0CBFC7F21149A11400229A0
:100EB00024D001294AD0002965D101250E9948572F
:100EC00000020978421820200443E3B22D200F9934
:100ED0000CF0A9FE002E119E109F5FD10E9C605752
:100EE000000221784018F94909B27D22D20002237C
:100EF00006F03EFC2070000A60704FE00A99097805
:100F0000643149B2401801B27D2900DB7D2002B274
:100F100066200F992B460CF086FE380406D0089800
:100F2000C1B23220382209230BF0DAFF002E119EC5
:100F3000109F33D10A9C20781821C943643040B2F5
:100F4000079A0CF0FBF86438207027E00B990978B9
:100F500064394CB2001901B20C9A914200DC10467F
:100F600002B248200F992B460CF05DFE002E119E18
:100F7000109F13D11922204606990CF0DFF8643037
:100F80000B9908700AE0099C20780F992A460BF00B
:100F9000CBFF411E88412070119E109F149C641C41
:100FA000139B129A1BE7761CADE63820D1B21029AC
:100FB0000BD110214B40C649097819434B424B4194
:100FC000C1B21220C34A0CF0E9FC4FE11495102085
:100FD000119038700827C04938460CF08CFF204625
:100FE0000B3843424341BD4EB27CBD49384608F000
:100FF00083FFB07400250C2C00D01495149B581E50
:1010000019468141142032560091662011990CF046
:101010008FFC307520460D3842424241707C0007FB
:10102000C00F18210CF02BFFC007000F717CF722B6
:101030000A401018707420460E3842424241307BFC
:101040008007C00F20210CF01AFFC007800F317BF2
:10105000FD220A4010183073FF2040001490012434
:101060002F46072F00D101E1737D2340581E834195
:101070009C48C25D28463F30C0B2282107F02CFBB7
:1010800013980F281CD106209749087097480078BC
:10109000874215D128463E30C0B2272108220923B5
:1010A0000BF01EFF12982E2801D0202808D1707D49
:1010B0006040707502200BF087FA00208C490870A0
:1010C000640014980440ED1D7F1CCAE768B2032237
:1010D00000210B460CF0B7FF054630700123681C59
:1010E000C2B208262046314609F030F9EDB2284652
:1010F0000BF096F8034600942A20F04A31461493E8
:101100000CF038FEEE490E9630460CF0F4FE680006
:10111000EC490E5E28460BF0FBFE01230094019380
:10112000652E194600DB21467C22D24319329642B5
:1011300010931E46139B00DB4E00002800D026466D
:10114000701E11908641581E454245413046284048
:101150001821DD4F0A460F91149BB8470094019463
:101160001199481E814111910D403021129128465C
:101170000F9A149BB847109F009701971398801EF1
:10118000454245412E4028220D9230460F99149B2E
:10119000CD4EB0470097019411980540284612990A
:1011A0000D9A149BB04700940194139FF91E484276
:1011B00048411E2563232946129AB04700940194A2
:1011C000391F48424841382262232946B047BA4E67
:1011D00030780BF09DFE5C250028284600D03C208E
:1011E0004022214609F0B0FAB8481099017028460B
:1011F00008F0E8FD30784100B24A555E19273946BB
:1012000069430A0E8E18294608F01AFA1490321211
:10121000722012990CF021FF149E7743380E381873
:10122000021254200E990CF018FF6801FF214900AA
:10123000891C4018820D8018870A38465C30C0B27D
:10124000720151188A0D89188E0A1D21891BC9B295
:1012500007252A4609F078FA5937F8B22021891B68
:10126000C9B22A460CF0DBFE9848047015B0F0BDF8
:1012700008249949204615460CF03DFEA81F42421D
:1012800042418C4DA87D8007C00F21460CF0F7FD30
:10129000C007810FAA7DFD2313405918A9750028A6
:1012A00028D1AD2040002818D5214900691888426E
:1012B00020D200214256002A00D501700122825618
:1012C000012A00DB4170401DEEE7C04618FC00001B
:1012D0006A0C00206CF60000F6EF00009A05002072
:1012E000F9F200009BFA0000AD0C00207E0C0020FB
:1012F0006F0C00201398C01F43424341744FE85DB8
:101300008006C40F10207549224608F0F5FDC1077C
:10131000890EEA5D20239A435118E9550126304091
:10132000A04202D00AF0F8FAE95D13980838424268
:1013300042414806C40F182120460CF0A0FDC10709
:10134000490EEA5DBF2313405918E9553040A042C9
:1013500001D00AF0E1FA0BF02BFD002869D08122C0
:1013600068E0B07A00235E49009141218900C0B253
:101370004218582010210CF078FD182059490CF023
:10138000BAFDFF204700012400251398082D14D032
:101390005548305C2040411E884100905348421916
:1013A000062068434230C0B2182101230CF095FB9F
:1013B000139864003C406D1CE8E7022819D14120D5
:1013C0001721382209230BF08BFD139812996029FD
:1013D00001D02E290DD112980BF03EFD0CF012FC1D
:1013E000414970543B480021017002200BF0ECF899
:1013F0001398C01E42424241354C305DC006C00FBA
:10140000202529460CF03BFDC007C00E315DEF22C0
:101410000A4010183055139804282FD12B200401AE
:10142000305764210BF002FE30552021149D0D43EE
:1014300027E08022602020210CF0F6FD139C20463E
:10144000093842424241687C304028210CF017FDA7
:101450003040697CFE220A40101868740A3C6242DF
:101460006241C806C00F30210CF009FDC007C00E54
:10147000697CEF220A4010186874F7E62B200001FF
:10148000305CC2B2782028212B460CF0CCFB13989C
:10149000401F434243419F208400305D4209302079
:1014A000134908F029FD4001315D1F220A40101840
:1014B0003055DBE69A050020B80C0020C9F8000082
:1014C0007CF300004C050020859A0000740C00207D
:1014D000730300006F0C0020CCED00002FF700001C
:1014E0008EF60000C1EF0000AF02000057F90000C7
:0414F0004DF40000B7
:1014F400F0B58BB0224901260E7022490978C9073C
:1015040001D0042200E003221F4C214608F0ACF96C
:1015140007461E4D2878401EC2B220463946FEF7C3
:10152400CDFD1B4800780B2801D900F0FCFD019784
:10153400029618490E7827780A97400078448088E4
:10154400400087440B0029005B00AD00BE002A0167
:101554008101AA0186028E02AC02EF02F1480CF06E
:10156400C0FC0848007801220240D11C0A322A70CB
:10157400781CC2B2EC480CF047F800F0D4FDC04629
:10158400CB0C0020BB0C0020A40C0020B70C0020C6
:101594005B0C0020C70C0020E4480CF0A2FC0620E1
:1015A40028702E25E248425DE2480090002F0696FE
:1015B400344600D000247620082123460CF053FC46
:1015C400002CDB4E07D070570A212D220BF0B4FDFE
:1015D40070550BF0A9FD1020D7490CF08AFC312579
:1015E400705D0024012F00D00AE340B21521C943E5
:1015F40016220BF0A1FD7055069B02E30696CF4818
:101604000CF06FFC062028700820CD490CF071FC0A
:1016140039465C27C64DE85DC41D4026002906D125
:101624000698064360B207210BF0FEFC0446E2B2C2
:101634006620082133460CF0F4FAE01FE8550A9EB0
:10164400701E434243414324285D8006420F10200C
:10165400BC4908F04FFC4007800E295DC7220A40B0
:1016640010182855B01E434243414F242A5D042AD2
:1016740000D304221820B44908F03CFC0328069F38
:1016840000D907202855032E00D01AE34D242857EB
:10169400012164220BF050FD285540233B4313E302
:1016A400AA480CF01EFC062028700820A8490CF05B
:1016B40020FC002F00D1E1E32F209D49085C40234A
:1016C400E6E3A4480CF00DFC06202870002F02D19C
:1016D400A1480921017079427941A048007800911C
:1016E400934C2246513208210A2308F071F9781EDE
:1016F400434243414625605D4007C00F1021984A8C
:101704000CF0FEFAC007400F615DFB220A4010187E
:101714006055B81E43424341C806C00F1821914A80
:101724000CF0BDFBC007C00E615D3A46EF2739409F
:1017340008186055D01E424242414C26A05DC006A6
:10174400C00F20210CF0A2FBC007C00EA15D3940E0
:101754000818A0550A9F381F43424341605D800624
:10176400C00F2821804A0CF09AFBC007800E615DEF
:10177400DF220A4010186055781F43424341A05DA0
:10178400C0093021794A0CF0BBFAC001A15D7F2267
:101794000A401018A05500F0C6FC069674480CF0D8
:1017A400A0FB09202870042F00D99EE20BF05AFCFC
:1017B4000825704928460CF09CFB7A427A415D2743
:1017C4005B4CE05D0126304029460CF056FB30406E
:1017D400E15DFE22099211400818E0550A98401E66
:1017E400424242414627E55D3540102128460CF02F
:1017F40044FB08963040E15D099A11400918E1550F
:10180400A84201D00AF086F80A98022801D00020E4
:10181400069049200990205C57490F5C0420574DDD
:10182400C6B2002E00D18FE2062141435431C8B222
:101834000321394069184A781821069B06F04AFFAB
:10184400701EF9B28F08EBE74D480CF04AFB0120FB
:101854002870002525704B4C019E072D00D176E1A0
:10186400E8B20AF09BFB0E21635E02B29A42014683
:1018740000DB1946E1811C23E35E9A4200DC184632
:10188400A083042D06D309B200B24018C10F40183A
:1018940040082080A41C6D1CDFE706963A480CF033
:1018A40020FB062028702D48007807900AF09AFF44
:1018B400800700D56FE2082034490CF01AFB102091
:1018C40000231B4D042B00D190E20490C1B2581C9C
:1018D4000390C2B20026304609930891334608F0BB
:1018E40033FD099948002F183A37042E00D3ABE092
:1018F40000240A98814209D10320174908700798E7
:10190400B042234603D10223069C00E023467F20F5
:101914003040032800D994E001A1085C40008744CA
:10192400374462793AEF000014C800005BFA000003
:10193400040B0020F7F90000A0EC000081F800007F
:1019440014F20000BBF000008BEF0000BFFA0000AF
:101954004EEC000053FA0000AD0C00207E0C002079
:101964003FF7000084F4000075F90000B1F80000AE
:10197400AFF900008DF00000B7F4000001FB000097
:1019840075F80000160400204BFA0000CFF60000A2
:10199400787882090898EB4908F0ACFA80017978E4
:1019A4003F220A40101878704BE07878800685163C
:1019B4000D20684381B2890B401882104220089997
:1019C40023460CF02EF9A0073BD51E20C1431F224D
:1019D40028460BF0B1FB3F2101407878C022024039
:1019E400501878702DE03D7800940720059005404C
:1019F4002B46103348200899E94A0CF0B9F9A0079E
:101A04001FD5032128460BF00FFB059908403978B0
:101A1400F82213E000203856C5105A2008992A46A7
:101A2400234608F0F1FFA0070BD50E20C1430F2277
:101A340028460BF081FBC000397807220A401018B1
:101A44003870761C099950E704980830039B0A9F64
:101A540037E7D4480CF045FA1020D3490CF049FA82
:101A640061E3D2480CF03DFA0025E9B209297AD2A3
:101A7400E800032900D90838C4B26E1C72B22A20C7
:101A84000023214608F0C0FF0F35E8B208F090FBB0
:101A94000246442021460CF00BFA3546E5E7C448DB
:101AA4000CF01FFA02982870C24800250570202007
:101AB40006430696C04FEEB2082E68D2E800C4B2C0
:101AC4001820412221460CF0ADFA28463130C2B22A
:101AD4001E2021460CF0A6FA30460AF05FFA0246B0
:101AE4002A2021460BF088FE032E04D830460BF042
:101AF40079F9401E02E0062E28460CD8C0B24000F8
:101B0400385E19214143080E081802125A20214652
:101B14000CF0A1FA04E05A202146069A0AF0F2FEDB
:101B24006D1CC8E7A5480CF0DCF9029828707B42CC
:101B34007B414624A24D285D4006C00F0821A14ADE
:101B44000CF0ADF9C007400E295DBF2277E12A24CD
:101B5400202E9D4D285D9D49087000D1F0E1BF2ED7
:101B640000D1F9E100E2102099490CF0C2F90024F7
:101B7400E0B206281DD2E1003822551A08F018FBFD
:101B84000246E9B220200CF093F9641CF0E78F4878
:101B9400029901708F480078002800D1C3E23024F4
:101BA400874D28577E21C9437F220BF0C5FA28555B
:101BB400B9E254201821884A0CF048FA0025EBB207
:101BC400032B00D9AFE2E8002030C4B254202146F0
:101BD400824A09F0C5FE6E00B01DC0B208F0E8FAF2
:101BE40002466C2021460CF063F9F01DC0B208F0E7
:101BF400DFFA0246782021460CF05AF96D1CDEE724
:101C0400234642B26020102108F0FEFEB81E424274
:101C140042414C25705D4006C00F18210CF02DF98F
:101C2400C007400E715DBF220A4010187055202570
:101C34000321E7B2022F31D23046002F01D05030B9
:101C440000E0483004780A988142089106D160B2D5
:101C540078210BF0E9F90446069B00E00023E6B284
:101C6400052272430995EDB2662029460BF020F84F
:101C7400002E04D07820732229460CF0D3F9002FCB
:101C84004F4E304601D0503000E04830099D08994D
:101C940004707C1C0835481CC1B2CAE70A98401F6E
:101CA400424242414624305D0007C00F30210CF00F
:101CB400E4F8C007000F315DF7220A4010183055D0
:101CC40031E24D20285C4023C2B2662020210BF073
:101CD400A8FF042E00D098E04E24285705210BF0CD
:101CE400A3F9285540210F4392E0092F01D3082777
:101CF40027700A973A4803210170314C5F34082158
:101D040005260027042F00D10DE200200090CDB25B
:101D1400FBB21E2009912946324A0CF029F8F6B28A
:101D24000A98801B414241412F48007800910423C6
:101D34002946224607F04CFE0999241D7F1C0831D0
:101D4400761CDFE736F800000698002805D0099DC8
:101D5400605717210BF068F9605500252F46042DB4
:101D640071D01826304678432430C0B2EBB220211B
:101D74001A4A09F0F5FD5E20205CE840C00707D050
:101D84006E432436F0B22021122200230AF02AFAEC
:101D94007F1C6D1CE3E71820EF490CF0AAF8C2E1A0
:101DA400FFE9000043FA00005CF0000034FB00008F
:101DB40066FB0000BD0C00204C050020A6F90000C5
:101DC400040B00207BFA000016040020660C00209F
:101DD4005CF300006F0C002083FA0000ECEC0000C0
:101DE400AD0C0020BDF500007E0C0020042F00D0B7
:101DF400D2E04A2428570921C94328220BF09CF930
:101E040028552021069B0B43C9E04E20285C40271F
:101E1400D9490091C2B2662028213B460CF023F830
:101E2400701F434243414624285D8007C00F302180
:101E3400D24A0BF065FFC007800F295DFD220A40DE
:101E4400101828556FE10A98032800D0EBE0B84831
:101E54000078C00709D05E2560570F210BF0E4F825
:101E64006055C4480078400605D423201F215C2215
:101E740009230BF033F84420205CECE02F24AF4D11
:101E840028571E2178220BF057F928554023334355
:101E9400C2B2662008210AF021FD4525A74C605DE9
:101EA400012F08D140B20921C9436E220BF044F935
:101EB4006055334600E0002342B20A3270201021FC
:101EC4000BF0AFFEB81E424242414325605D01273C
:101ED40038401821A54EB04733463840615DFE2294
:101EE4000A40101860550A9EF01E4242424188077B
:101EF400C00F20211F469847C007800F615DFD2257
:101F04000A4010186055301F424242414807C00F32
:101F14002821B847C007400F615DFB220A40101812
:101F24006055701F43424341C8093021904A0BF069
:101F3400B6FFC001615D7F220A4010186055F2E0CF
:101F4400401C7C490855C1B203290DD117200BF060
:101F540075F801200AF036FB764800210155182057
:101F64007C490BF0C6FFDCE0C0B20028F7D00228A1
:101F740000D190E0012800D0D3E00024724E734FCA
:101F8400072C00D1BAE0AE83EF81E0B20AF006F884
:101F94002880AD1C641CF3E74A20285C20236F4989
:101FA400009140B20A3082B24E20302421460BF018
:101FB4005AFF32356A4E902C10D02878697809027D
:101FC40008183188081A400002B2E0B238212023F0
:101FD4000BF027FEAD1CB61C1834ECE7052F52D1CC
:101FE40001986028029C4FD15D4908883222534CE5
:101FF400A0545C4A002313703234CA88A2718B88BF
:1020040023714988A170120AE2711A0A6271090ADD
:10201400E170000A6070012420460AF0D3FA172008
:102024000BF00CF830E044250428605D13D14D49D1
:102034000978002979D040B203210AF0F5FF615DE7
:10204400C2B202238A4207D060554C21625C7F25CC
:102054001540655400E000233130C2B2122028211B
:1020640006F038FB0024E0B203285CD81825654349
:1020740024350AF0B7FE0246E8B22821002308F00E
:1020840063F9641CEFE7002400203821364A234614
:102094000BF082FC47E02848002101700D20C0436A
:1020A400264D00282DD023490A18135F1C26965F5D
:1020B400F71AF9177F184F40332F1DD399B2B3B2D3
:1020C400D689891B0AB2920E8A1812B29209891A09
:1020D4002A182B27D155D673370A1774F31A1EB250
:1020E400B60E9E1936B2B6099B1B5377090A1646DB
:1020F4002B367170190A9177801CD2E7102014498D
:1021040008E00AF01FFD2B2168542B35000A687083
:1021140010200B490BF0EDFE12201821094A0BF098
:1021240095FF07F02FFF0BB0F0BD089B94E7C04666
:10213400BB0C002016040020BD0C0020040B002062
:10214400CFF5000017F6000068C50000983A0000BB
:10215400F1F7000028F60000CDFA000022F9000093
:102164002C0500206F0C002062FB000091DE0000B3
:10217400FFF70000800C002039F6000069F8000029
:10218400F0B59DB0039002200A460C9002401692CE
:1021940020200840089001200491119001401491DE
:1021A4004420D649085C8006000ED54908181390CF
:1021B4000920C0430A9000271BA81A90D14C3D4621
:1021C40018971797072F00D1C7E0FEB2304609F0E1
:1021D400E5FE00B2314608F03BFA0446032F3846C8
:1021E40004D82009C849C8551398C05DC2B2530029
:1021F400C648C452200F201800B20009010601D5B8
:10220400404200E080B20006C14988420CDC00284C
:1022140002D0C048007800E0FF2001219140014035
:10222400C8B2179901431791032F2FD81498002887
:1022340019930FD1B348007B80070BD51595AF4890
:10224400C5183A20285C3A35697809020818810BC8
:102254003ED1159D1899159118960898002803D019
:10226400AD48C018F821445221B21646104607F072
:10227400E5F90446A948007818990BF052FE199B19
:1022840040001A9908801598189000E0164608989E
:10229400002803D0A048C018E02144521698002812
:1022A40010D0032F0ED8022E0CD00A2C02DC0A9870
:1022B400844204DA9848C018E021002242521BA844
:1022C4000021C1521A98801C1A907F1C8D4C79E70A
:1022D4001292000200B2C0120BF094FE00282BD020
:1022E4008F480078002827D02878697809020D18CB
:1022F4006807000F8149091832228A5C3231497813
:1023040009028918874A105A401A81B2C90B401829
:1023140000B24008A90009B2890A414308B21F214A
:102324000BF08BFA8100A80B02280AD00128199B14
:10233400129A09D10C1907E0159D1899199B129A44
:1023440089E70C46199B129A022A00D01899022A8E
:10235400119D00D17FE7159D7DE7607CC0070C9F30
:102364001AD06E48007802210BF0DBFD04460AF017
:102374001DFD002800D0644260B27D30E421664A2D
:10238400515E01229202511A4143C817800D081868
:10239400800A1BA988805B4C15950120149080024B
:1023A40006900898002800D1ECE0647D179804405A
:1023B40058480078FF2141400C4202D018200AF00E
:1023C4003DFEF0205449069A0A52EE200A52514822
:1023D40004704C48007E00282ED0E2274E4AD15F7C
:1023E4004943E626925F5243551840B20BF012FD62
:1023F4000446404385421FD91A961498C0030146E7
:102404008AB25243AA42024600D800224A4000043B
:10241400400C114601430028F2D13F4EF05F604367
:1024240095B229460BF009FAF0531A9FF05F604306
:1024340029460BF002FAF053324CA37D202B0C9F5B
:1024440000D29FE0002016990029024601460AD1D5
:10245400E621314D695A1BACE2885218E221695ACF
:1024640064886118274CE47D002C0CD0601EC4B233
:102474006000142C03D32C4C0019283802E0264C9D
:102484002018E0300088DC0600D540421C0700D547
:1024940052425C0700D549425B09022B06D0032B4C
:1024A40029D0042B42D1831A841862E00BB2DB0BCF
:1024B4009BB25C0B0C1924B2E4086442A4B28DB242
:1024C40064195D0A4D192DB2ED096D42ADB264195E
:1024D4009B09C91809B2890A494289B2611893B2A1
:1024E400DB0BD3181BB25B089BB284B2E418631AEB
:1024F400641811463DE0441839E0C046040B00203E
:102504009FF600009A050020530C00204C05002083
:10251400FFFFFF01890C002008FEFF1FD10C0020E3
:10252400730C00202C050020E404002013B2DB0B04
:102534009BB25C0B141924B2E4086442A4B295B2B1
:1025440064195D0A55192DB2ED096D42ADB26419D5
:102554009B09D21812B2920A524292B2A2188BB2BA
:10256400DB0BCB181BB25B089BB284B2E418A31A32
:10257400A418F622F14DAB52F422AC52401AF221C7
:102584006852EF4CEF49F631189800B200250291D9
:102594008842149800DB28461599C9B24A424A4138
:1025A4000243019240200499014004911A34149882
:1025B40081040E910321139149040D91C1041191D9
:1025C400800509901920079040052E460590102D8E
:1025D40000D19DE30020129016952078401EA84259
:1025E4001A9600D0A2E2E0570BF0F9FC1790F1B272
:1025F400D24819914518C020285C1890C03513980A
:10260400205600261499324604F030FAE178002965
:1026140010D062780D2A0DD30121152A0A4600D361
:102624003246C94B1B785E425E4132420CD148406F
:1026340002D009E0002807D0617A1F200840FD4A33
:102644001278D040C00721D0607800262E702D2843
:1026540009D119988000B9490818FE49129A5143C2
:10266400091201640FE0FE21014008290BD16179B0
:10267400A27912025118E279120489180D9A1140B4
:102684000E9A914222D1169D1A9EBAE1189E70426A
:102694004641631C6278501EC0B20B2810931896F2
:1026A40018D84100A54A5118E0228F5A0126032860
:1026B40052D86079A27912021018E27912048018B3
:1026C400099A104248D0F8200F5A45E0092815D03D
:1026D400374615E0132816D80D3AD0B24100032826
:1026E400DD48405A08D8DD4A511832228A5C32311A
:1026F400497809028918401A47002CE0914FE237C3
:10270400601C109028E023280DD86179A279120268
:102714005118E279120489181438099A40001142B8
:1027240017D0CF4916E0242809D149B2C8B24009CC
:1027340000D1D6E1002900D5DCE10E21DBE12B2814
:1027440000D99AE140007E494018C6494056C70066
:1027540001E0C5490F5A01262E706079A17909025A
:102764000818E17909044618601D1590119806426D
:1027740013D1207A002810D040B27C21C9437D2295
:1027840009F0DCFC0BF046FBC719159A1078517858
:1027940009020818917809044618300400D1BAE0F7
:1027A4006748407C000701D5142000E064200B90AA
:1027B400199A530061490F93CD5A90000B181A6C63
:1027C400100A381A01B20A2902DC0A98814205DA91
:1027D400002D04D10025300604D100E0002518980E
:1027E400002823D030460D9908400E99884212D112
:1027F400207840009C4940180121C943405E079954
:102804008A0242431799002905D0104619930BF008
:1028140014F8199B0246100A381A010409D000B2B0
:102824000028199009D4F0B2050909E019910F990B
:1028340009E0002019900F9905E00F200640354665
:102844000F990B9845433D484018403329B201295C
:102854000ADB86490978002900D06D1E290401D0BD
:1028640005804EE00A9D093519990580002949D053
:102874001892159A10785178090208189178090469
:1028840045182804000E16D078480078002815D082
:1028940017990029059A104608D0C8110918414013
:1028A400C9B210461E460BF025F833461999002983
:1028B40006DC0C2105E038B2020223E0189A13E08A
:1028C4000821CD400F222A400CD019991D46002919
:1028D40000DC40420B9951430AF0AFFF189A82186A
:1028E4002B4601E038B2020238B21112199D012DB3
:1028F40001DB814204DC199D002D02D5814200DAFE
:102904000202170A1A60159A1078517809020818F9
:10291400917809044618042021563002001215D477
:102924001A20C043814201DB1C297ADB7F20C0438B
:10293400414038B20AF0C0FF16E0C04608FEFF1F4F
:102944009A0500201EFBFFFF730C002008460BF0C5
:1029540046FB024638B2012A56DB002854D56421CE
:102964008A1A50430AF069FF0746169D1A9E159A63
:102974001078517809020818917809044018C103A5
:102984000AD4109909784A1E032A05D849001BAABB
:102994008918891E0988CF1939B2179F4F43119995
:1029A400084216D0217A002913D048B27C21C943A9
:1029B4007D2209F0C3FB0BF02DFA64214143CA19AF
:1029C400159B187859780902081899780904401851
:1029D40000E03A460C9F4003800F02280CD00128E7
:1029E4000CD1642110460AF028FF12994143C817FC
:1029F400800D0818801203E0129202E01298101859
:102A04001290761C0A34E8E5002AAED50128169DFA
:102A14001A9EACDB6432504364210AF00EFF074671
:102A2400A5E7062930D8880003A10858169D1A9EE8
:102A34008746C046D10C0020752A0000772A000082
:102A4400AB2A0000B32A0000BD2A0000CB2A0000F4
:102A5400D72A00008F0200002C050020040B002060
:102A6400C40400206F020000E4040020600C002075
:102A74007DE738B2002824DD79E72C2845D164218C
:102A840012980AF0DAFE46E00029169D1A9E00D537
:102A94007F42002901D50620411A38B2C91FC9B2A4
:102AA4000AF03FFDBBE738B2C01307405FE738B216
:102AB400C0133F1847405AE738B20028069F00DD8C
:102AC40055E7002753E79748E23039B2CF13074060
:102AD4004DE738B20028069F00DD48E7914FE23702
:102AE40045E7122007F064FB0126002815D08D4F1E
:102AF400E23731E61121081807F05AFB0028069F37
:102B040000D028E6874FE23725E62E3AD0B20021DE
:102B14000A4606F085FA07461DE6132007F048FB2F
:102B2400002801D1069F17E6002715E600217E48FC
:102B3400179101707D4D287800281ED064261298C4
:102B440031460AF07AFE014674480078400028189D
:102B5400C0884843169989006918089A002A01D147
:102B64000A69801808610499002900D1CCE06F49F2
:102B740089880AF062FE464300E0129E64213046D2
:102B84000AF05BFE16994B00654A1893D052052053
:102B94004843614D2918AD204000199112900B183B
:102BA400D97804200F901A56120252182B210901C9
:102BB400695C4D42AA4200DB15468A4200DC294684
:102BC400012010901B560A256B43069FFB185B18C7
:102BD400183B18B2E237B84200DB3B4618B21590F6
:102BE400824200DC13461998129A805645434D4A96
:102BF40050194518FA3528B29042179F00DC494D08
:102C040018B229B21291884200DB1D46002E0BD067
:102C140002D41598401B01E01298281A00B27043A0
:102C240043490AF00AFE074628B2424DA847C6198E
:102C340037B21598A8470546874200DC35462FB2BF
:102C440012983C4988470646874200DB2E465720A7
:102C540080001999085C00280C9F00D076429F20C0
:102C640080002D4A105C1F2101401020401AC0B280
:102C74001699814241D2189815182F4AA85C8000F1
:102C840001063AD0AF1840B280100BF0BBF9397886
:102C94008A090146032A10D300280C9F1BD11991DD
:102CA4001C4A0F99525E1C4B24495B5C9B0606D45C
:102CB400029B9A4209DB149A0AE00C9F16E0D31394
:102CC400D2185A4012B2142AF5DA019A10994A40DD
:102CD4001999002A03D101225040194A107018484A
:102CE4000078002800D110990F480170002904D001
:102CF400144828560BF08EF8064672B600BF0398A7
:102D04001899465262B600BF169D6D1C1A9E5EE469
:102D14001DB0F0BD4C0500209A050020D10C002008
:102D2400E40400201EFBFFFFB90C0020B4FFFF1FCA
:102D3400A086010007DF00007D020000730300008D
:082D4400930C00207E02000048
:102D4C00F0B587B0F94800250570F9480088059062
:102D5C0008F092FBF7480168F74A12680260501AB3
:102D6C00F64C2070F648294604F0C0FD7C20C04388
:102D7C0004902078002800D1AEE2F24801780029B6
:102D8C0001D0491E01700AF07AFFEF498A889042FF
:102D9C002DD14520ED4A105C0A3002062CD0EC4AAD
:102DAC001278322A28D30A78521C0A70D2B2102A0E
:102DBC0022D300220A704A88521C4A80FF217831A3
:102DCC00C0B2484380B291B2884215D21F20024053
:102DDC00012A11D1DF480178FD220A400270062039
:102DEC0009F0F2FE10202D2109F0CEFF04E04D80F9
:102DFC008880D9480121017002F00CFC09F004FF15
:102E0C00D6480178002901D0491E0170284605F0EA
:102E1C0001F90AF0E7F8D24804780570D148807CB3
:102E2C00032801D0064600E00426042800D1082619
:102E3C000F202040801F072804D8F0212140202992
:102E4C0000D086E040202146014340291AD103944A
:102E5C000020C643C44C2078411CC8B28842374677
:102E6C0000D1074609F060FF002800D10746F8B2F0
:102E7C00C82800D03E462670C82801D0039C01E02B
:102E8C004220C4430C20B94E325EB948415F891AC6
:102E9C00CB0EC91849090904294606D00280042121
:102EAC00415E891ACB0FC91849108280B14A127839
:102EBC00002A00D029464622A44F0292BA5C920600
:102ECC0000D529464180AC4D68796978091ACAB297
:102EDC00D2098918FE220A401018687148B24010B5
:102EEC0028722043C0B208F00FFAA4480078800082
:102EFC00A34909585C20385CC01DA24A914200D0FD
:102F0C00A8E0A1490978002900D0A3E0297A00297A
:102F1C000DD000222A720622AA5649B25118049AE0
:102F2C00914200DC11467D2900DB7D21A9719F2196
:102F3C0089008C4A525C510900D18BE050B20028B8
:102F4C007CD448008019C08801218A028018C902EB
:102F5C007BE044217D4B595C89008C4A5118C0B2EE
:102F6C004008085C5D21595CC90701D00321081A8F
:102F7C00C7B28748007839460AF019FC03903946E5
:102F8C000AF0CBFF002E08D1C11342184A4011B2EF
:102F9C00890F511889B289084E1C0697022F11D13E
:102FAC0046216A4A515C7B4A6E4B9A5C92094A40B4
:102FBC00D2075B7C0121194000D00226002A02D0E6
:102FCC00764200E00021E20772B2264600D152425E
:102FDC00121893B25C1EA3411446444024B2002C38
:102FEC0001DA002400E0012423400B430FD1002818
:102FFC000DD00027039806993A4608F0C9F83046D8
:10300C0009F024FF16200AF015F83C461FE717B20A
:10301C0038467C3080B2F82869D8039806993A462D
:10302C0008F0B6F878B2C01139184140C8B281081E
:10303C003C3115200AF026F8002408E748004949DD
:10304C004018554940567D30FA2182B20720504332
:10305C000AF04CFC51490978C0B2884201D009F001
:10306C00B3FD4C2038560028FB4B039424D518781C
:10307C00002821D0F94800780028FD4A00D193E0BF
:10308C000024474E3057002801D4401C30700220D9
:10309C0008F068F97F270146394012D032788A420D
:1030AC0022D9347003990906F14AF44B7CD140B211
:1030BC00002839DA632076E0F14800210170EC4AEF
:1030CC0072E0032008F04EF907400DD03178B94278
:1030DC00E74A0AD9347003990906E84B64D140B227
:1030EC0000285FDA64205EE0E14AE44B5CE0002FEC
:1030FC0001DC049A00E07D220699039808F048F858
:10310C0038467D3080B20024FA2800D99FE678B288
:10311C00C01139184140C8B280083C21081AC1B20C
:10312C00152009F0AFFF92E662203CE0D20C0020A3
:10313C00420100206401002050010020600C00209E
:10314C00C40400206A0C002080050020040B002021
:10315C007D0C0020BB0C0020630C0020730C0020A5
:10316C006D0C00209A050020B10C00204C050020AD
:10317C006E050020660C00203A0C00207F0C00200D
:10318C00E0000020E1340000570C00209FF6000006
:10319C00D10C002073030000B7020000D00C0020FB
:1031AC008E0C002065200390012001901870AD79E1
:1031BC000020BD4FBD4BC4B2072C1ED260001618A8
:1031CC00F05D002817D0052829460BD006962E4610
:1031DC003D461F4607F0A0FB3B462F463546069E54
:1031EC00A34A014648B20499884200DC08467D286F
:1031FC0000DB7D20F054601CDDE7A24D2868002820
:10320C000ED00024214608F051F80AF0CFFE9E495A
:10321C000A78012A944E1ED1002820D12C601EE081
:10322C0099490020087099490C78002C8E4E04D0D6
:10323C000870172009F0FEFE03949548039A02705B
:10324C009448142101708B48007880008A490958F1
:10325C00D0B2884703E0002801D00198087006F02E
:10326C00D3FE8D4800781F210140022931D18B48B3
:10327C000478103404700E208949085E410F4118FF
:10328C0009B2C9083022B2564A430001101880B264
:10329C00A52149000AF02AFB744D29780818401C16
:1032AC0040082870210614D12F21715CC0B28142D4
:1032BC000FD911202E2109F067FD28780121242235
:1032CC0009F0FEFF0298305C000702D575483221E8
:1032DC00018064480021017075480178032901D1EF
:1032EC00002101705E4800880599401A82B271492C
:1032FC000B889A4200D908806F49C878002800D101
:10330C009CE06E480188491C01800020704DC7B2BA
:10331C000B2F00D98DE003200390784354490A18F1
:10332C004B20C00011180591654953180292115C8D
:10333C000F2608463040634A1018401E00780328B8
:10334C0006963BD17800604A125E002A02D009D45E
:10335C00541E1EE000229C56002C1ADBE2430A2469
:10336C00544316E092B2541CA2B2A24211D01E4693
:10337C0003227A433E4B9A18544BD256002A05D45A
:10338C00521C52B20A2353435C1E00E0D443334612
:10339C00069E4D4A121808090FD0082801921E46A5
:1033AC0000D9401C0AF02AFE002801D1049C7C3470
:1033BC00059801783346069E019A148031400C29F9
:1033CC002E46ED5D08D10024019318570AF016FE25
:1033DC00002804D001240DE02C4635460CE00320D7
:1033EC00784323490818394940560AF007FE00284B
:1033FC0000D12C463546019B06990598007808406B
:10340C000D2813D1002018560AF0F8FD00280BD017
:10341C00A0070BD42D48029908560AF0EFFD00289E
:10342C00039C03D1022401E0FD200440EC55781CE0
:10343C006DE709F019FC00201F49C8704878002876
:10344C0007D0002048700E480178002901D0491E91
:10345C00017007B0F0BDC046BD0C0020BC0C0020B4
:10346C0042010020630C0020040B00207D0C002086
:10347C009A0500207F0C0020E0000020BD0C0020ED
:10348C00BC0C0020800100208F0C0020C80C0020F8
:10349C00BA0C0020BE0C0020800C0020900C0020E8
:1034AC001C05002088050020BA020000B9020000AB
:1034BC007C0C002086050020EC0C00208E050020E2
:1034CC00560200004EF700000405002057020000D1
:0434DC001A0C0020A6
:1034E000F0B587B0E449002206920A7042210391A8
:1034F000E249CA7C0F21154604910D40E04E317817
:10350000002926D01420DF4E30560AF07DFD0446F7
:10351000DD4F002804D03878002801D105F0B0FC38
:103520003C70E8B2029001286DD0D4480478D748A6
:1035300005780A27782F08D03278F8B200210423C2
:1035400005F0CAF8761C0B37F4E7A54229D384228C
:1035500028E0702111400346803B0E2B00D8E7E0A5
:103560000346203B0E2B00D998E15B007B449B88EF
:103570005B009F440F000E00FB01FF0109021B02CC
:103580000E000E000E000E000E000E000E000E00CB
:103590000F00B7E7012DB5D10024747001253570F7
:1035A000E0E0862225201025294609F0ADF92620E5
:1035B0001826562231460AF037FD5D2000240423E8
:1035C0002946224609F01EFC332031462246234676
:1035D00006F0A6FB08F032FF00280CD00246262495
:1035E0001021204609F09EFA25200F2109232246AA
:1035F00009F076FC07E0A348837C00942620102184
:10360000A34A0AF0B7FB069EF5B2042D6ED22846F7
:1036100009F0EAFB04469F48007829460AF083FC3B
:10362000C1138A0F821812B29710002801DC3846A5
:1036300000E001203A0600D1471879B21B20C043B0
:10364000814200DC074678B21C2800DB1C277F2063
:10365000304091490919491E0C7801280BD00228E5
:1036600021D104213622204607F06EF8EE48407C36
:10367000C00705D014E004213622204607F064F884
:10368000601EC0B21E25069603262946324607F064
:103690005BF8601CC0B229463246069E07F054F81B
:1036A0001F20C11B18E020461B38C0B23B210591EA
:1036B0003622EB4B9847601E0696C6B23A21032588
:1036C00030462A46E64B98473C213046069E2A461D
:1036D000E34B984705993C19E01EC0B2C91EC9B218
:1036E000072213460AF046F8761C8DE70298002858
:1036F00014D0012800D095E0112000900824002665
:10370000C94A0A23204631460AF0E7F9D54800782D
:10371000C6490978814229D3304628E006F034FCB6
:10372000BA48057806246C43002D56D1284655E04A
:103730005B00C0467B449B885B009F440F00EB000E
:10374000F100FC0003010D010E000E000E000E0042
:103750000E000E000E000E000F00D3E60024747061
:103760000221317009F078FBAE48A9E00120420047
:103770005420314609F0C8F86F20314632463346AE
:1037800009F040FB3026304607F03AFB3F20214647
:10379000324606F0D9FF0720C743002F42D0A24887
:1037A000C019A549405C002815D03E460836451E84
:1037B000E8B207F07DF803460020009004980190DD
:1037C000F007204600D00398B20010327821114053
:1037D0006AB203F0EFFE7F1CDFE7E01CC1B20A20F3
:1037E00009F0E2F8002D05D0A01DC1B2642009F057
:1037F000DBF817E0642428268D4A204631460AF07B
:1038000027FC72250722284631460AF038F8302670
:10381000884A204631460AF01BFC042228463146DD
:103820000AF02DF8774C2078002871D0012806D1B5
:10383000824803210E2204F0ADFE052105E08048F8
:103840001F210E2204F0A6FE00217E4A0023937061
:1038500001285DD1A0784018C0B2062858D8C046CB
:103860007844007940008744032D364145494E0095
:103870006B4808F07BFD4BE0BD0C0020330B0020B3
:10388000570C00209A050020910C00207D0C002090
:103890004AF60000D10C002052FB0000612800D144
:1038A00095E0BF2800D02DE60124574E2046B047B2
:1038B0000320B0470220B04754480021017054480B
:1038C00004701FE664480370534801210170634887
:1038D00008F04CFD1CE0012090705D4800788000ED
:1038E0005C494018406808F041FD11E04B4808F081
:1038F0003DFD0DE0474808F039FD09E05A48808851
:103900004042524903E05848008840424E490880EE
:1039100007B0F0BD09F09EFB0AF090FB172061E0B4
:10392000012001434F48C174172009F089FB822010
:1039300009F092FAECE7374808F018FD832009F007
:103940008BFAE5E7344801210170354808F00EFD97
:10395000842009F081FAD5E52F48012101702F4814
:1039600008F004FD852009F077FACBE5002D31D071
:103970006D1E30E06842454129433A48C174A12098
:1039800008F022FE13202DE004980240012A2ED0D8
:10399000002A00D0B6E51D480178491C4AB200252E
:1039A000022A2A4600DC0A460270ABE5049802406F
:1039B000012A1AD0002A00D0A4E514480178491E33
:1039C0004AB2002A00D50221017000259AE5012D96
:1039D00013D097E5012529432248C174A12008F09E
:1039E000F3FD142009F02CFB8CE5303100E01031A0
:1039F00030200840401C1B49C874172009F020FBE8
:103A000001257FE5570C002059CE0000AF0C0020A7
:103A1000910C002001940000660C0020F5140000B9
:103A200005530000BA0C00209A0500207D0C0020F0
:103A300091FB00008EFB0000B902000083F500003E
:103A400017EF00005B0C0020940500209805002073
:103A50007F0C0020E0000020BF0C002011040000BB
:0C3A60001FE00000330B002094FFFF1F4C
:103A6C00F0B58FB004463048007809F069FB054684
:103A7C002E4F0E22384607942146FCF71BFB2C4890
:103A8C000AF02BFA2A78801DC0B200242146234666
:103A9C000AF01BFA3F57384608F0BCFF0690254841
:103AAC0002780820244903900AF03AF82B46F8B221
:103ABC000890691D0D950591E0B2072800D317E217
:103ACC0006982018C0B2089981420C9401D00026A7
:103ADC0001E01A490E780E2800D906E20C99CD00A7
:103AEC002C460834810001A251588F464D3B0000F2
:103AFC006D3B0000813B0000953B0000AF3B00009C
:103B0C00C93B0000EB3B00001F3C00007B3C00006D
:103B1C00993C00002D3D00005D3D00007D3D000006
:103B2C009B3D0000BD3D0000B40C0020A20C002009
:103B3C0089F90000690C0020A5EA0000C70C0020E0
:103B4C005D78E1B21C46F3B25420224607F09AFD90
:103B5C00252D00D03FE1607A4509253523463DE10E
:103B6C0002201A56E1B2F3B260200AF044F90D9B20
:103B7C009870BAE103981A56E1B2F3B260200AF0D9
:103B8C003AF90D9B1872B0E1059DA878E1B2F2B23A
:103B9C000007C00F0AF06DF90D9BC007000BF72151
:103BAC00CEE0059DA8784006C00F5978042900D9AD
:103BBC0023E1E1B2F2B20AF065F923E1059DA9789F
:103BCC0001200840E1B2F2B20AF05CF90D9B7F21B2
:103BDC004904AA7812040A40C007C00BB4E0059A45
:103BEC001078517809020818917809044018C50D0D
:103BFC000002001200D518E1042018561A21C943FE
:103C0C00884203DB1B28C34A00DA0FE10225C24AB3
:103C1C000CE1059A107851780902081802215156C6
:103C2C0009044018042500285F5700D51CE11A2010
:103C3C00C043874202DB1C2F00DA23E17F20C04304
:103C4C00474040203043C3B2E1B266203A4609F007
:103C5C00E4FF300606D06320C1436422384609F0E5
:103C6C0067FA07460D9B8020784018713DE1F3B24E
:103C7C00581E1946814103200D9A12560091E1B24B
:103C8C004E2009F04FFE0D9BD8702EE130060A90A5
:103C9C0002D0042099490870072009900543049527
:103CAC0000260121F7B2042F00D91EE1587A0E919B
:103CBC0008401F210B91084043424341099D754325
:103CCC0028463F30C0B2E1B232463032D2B204F0B4
:103CDC00FDFC0A9800281DD089480078B84219D1FB
:103CEC000498C1B23E35E8B20822092309F0F2F873
:103CFC0007982E2801D020280CD10E980B9A024040
:103D0C000D99487A50404872022008F057FC002068
:103D1C007C490870761C0E980006C10D0D9BC1E7FE
:103D2C000899081A43424341059DA978E0B2490716
:103D3C008A0F714906F0DAF80D9B8007400BF921C8
:103D4C000904AA7812040A408018000CA870CCE070
:103D5C00059F3A780F252A40E0B2F1B208F0FCF842
:103D6C000D9B28403978F0220A4010183870BCE0BE
:103D7C00059D2A78E0B2F1B2120908F0EDF80D9B1E
:103D8C00000129780F220A4010182870ADE0059D1B
:103D9C006A78E0B2F1B21206120F08F0DDF80D9B52
:103DAC00000369780907090D4018000A68709CE047
:103DBC00059F7A780F252A40E0B2F1B208F0CCF8D2
:103DCC000D9B29037A7812020A400007000D801817
:103DDC00000A787089E000D9AD1D0D9B300600D12A
:103DEC0083E068B20121372209F0A2F90D9B252846
:103DFC007AD32C2870D3801F76E0E1B2F3B2474A15
:103E0C0009F07AFF29786A7812025118AA781204FC
:103E1C008918384A114029700A0A6A70C007400A8A
:103E2C000843000CA8700D9B5FE0394AE1B2F4B274
:103E3C000620234609F0ACFD002C0D9B55D0022129
:103E4C00284609F0EDF80D9B85424ED0811E4A4262
:103E5C004A41D1011971C005059A91784906490A60
:103E6C000818000C907040E06420F1B200900191B1
:103E7C00E1B26320C34348203A4606F00BF90D9B90
:103E8C00187132E0E1B2F4B20C203A46234608F045
:103E9C004DFA0D9B002C28D058570F21C9431622E0
:103EAC0009F046F90D9B1871079960291DD1072857
:103EBC0007DBC01F14490870144808F051FA0D9B19
:103ECC00187941B2002910D5C0430F4908700F482A
:103EDC0008F046FA0D9B08E0597A1F220A4040016F
:103EEC00801860305872252058700C9C641CE3E5D7
:103EFC000FB0F0BDFFFFBF0031F40000AD0C00208F
:103F0C007E0C00206F0C0020B60C0020818100007C
:103F1C0019FB0000FBFA00001FFB0000A8F70000D3
:103F2C00F0B58BB00546D94809F0D7FFD84C2078AE
:103F3C0000281BD0D74A117A002010724AB2012AED
:103F4C0001DB622200E06322002900D01546D24931
:103F5C000978002901D1632D05D0622D04D1CF4AF7
:103F6C001256914200D10546CD480570CD480078D7
:103F7C00002805D1C9480278C7482946FCF79AF8A9
:103F8C00C74E3078C44909780691012103912E2837
:103F9C0003D0BF280AD060280AD1BD490A78002A6C
:103FAC0037D0FA48002202700A70F94C00202070B9
:103FBC000295069840B208F02DFD0146F9480078AC
:103FCC00002801D000203070F248007800280791BA
:103FDC0031D0F34807783E46623E74427441622FFA
:103FEC0001D0632F27D1F14805782C43284609F0DE
:103FFC00A7F8002C17D0202D1DD8622F01D1202D11
:10400C0019D00021622F00D18AE104460F46C84323
:10401C0089E1E44909780029CAD108F017FF00208A
:10402C0003903446C2E70178022901D3491E01707E
:10403C00022008F0C3FA012000263546C1B210292F
:10404C0000D908E109910890F0B20A9009F078F8CB
:10405C00079B0446EFB29F420BD3F81A062808DCE4
:10406C00C0000830C1B201200023099A09F02DFFCD
:10407C00079B0A981F2800D9C3E020780999884229
:10408C0000D0BEE0C44A0F46E8B2984200D2AEE07F
:10409C00C11A062914DCCF00BE4909780022002978
:1040AC0026D10699C9B2814222D10898C14908701B
:1040BC00BE4806700398002813D0BA48007815E063
:1040CC00072900D093E0B3480078002800D18EE097
:1040DC00B7480078F1B2884200D088E01078401CD4
:1040EC0080E00120AF49087002924A70424242417E
:1040FC0005920837F1B20A980491884209D0E07908
:10410C0000210091F9B24007830F1320AE4A09F049
:10411C002BFEFFB2302000233946224607F0B2FABC
:10412C00022022562D203946059B09F064FEA07012
:10413C00E078002805D042B248200023394606F02A
:10414C005FFC207900281DD06179A27912025118E8
:10415C000722A256120489180BD401461B31C9B28E
:10416C00362909D842B260200023394608F0DEF81F
:10417C0008E06020642201E06020452200233946DB
:10418C0004F0A4FA6079A17909020818E17909040C
:10419C004018FF210902014001D0532200E02022E7
:1041AC00002901D02A2100E04421000600D00A4653
:1041BC007920394609F032FF76480078002813D070
:1041CC007B480078049988420ED11820662200237F
:1041DC00394608F003F875480670284606956E4A6D
:1041EC00079B099F107002E06B4A079B099F6D1C8F
:1041FC00F0B21E2823D8761CA07A0A34B8421BD100
:10420C0042E70698C0B2B84215D1684806700898C3
:10421C0068490870E81AC000C01DC1B200241922F8
:10422C000923204608F056FE0398002803D108F015
:10423C0061FC002805D06D1C0898401CFEE6202669
:10424C00FAE75A480078214606F04EFC51480470B3
:10425C00594808F085F85348007800285BD002983C
:10426C004F4C207055483F210B2204F08DF901284A
:10427C004AD14C48807805282FD8C046784400791C
:10428C00400087442011222A2E33C046F5FA000044
:10429C006B0C00203A0C0020AB0C00206C0C0020A6
:1042AC00BA0C0020570C002008F024FC00280AD17E
:1042BC003E490878401C0870C0B20024214606F024
:1042CC0013FC344804703C4819E038490878401C09
:1042DC000870C0B2012106F007FC01202D490870BE
:1042EC000FE0324800783649087002E03448FF216C
:1042FC000170207808F0AAFD00202070314808F0E9
:10430C002FF8002027490870274800210170274802
:10431C00007827490870681E204908700BB0F0BD62
:10432C000F46044601202D18E8B208F009FF217849
:10433C00002900D17FE6102900D97CE60278102AEA
:10434C0000D978E623468A420BD10A210A0619D0F5
:10435C0002781C461B7803702270631C401C491E9B
:10436C00F4E7102900D20127704270413840721EC8
:10437C009641002802D1002E00D159E6891B08185D
:10438C00187055E60A48057052E6C0466F0C0020BE
:10439C00BF0C00206B0C0020AB0C00206C0C002020
:1043AC00BA0C0020570C00206F0C0020B40C00201D
:1043BC00B20C0020B50C00206D3A00003CF200005D
:0C43CC007A0C0020B5AC00004DFB000096
:1043D800F0B58BB00990FB4809F081FDFA4C2078C4
:1043E800421C4E200025294609F033FE2178092277
:1043F800104607914843FA490C18FA4FE05D400708
:1044080000D00A22F84E30460999FBF755FEE71905
:10441800F64820187457052C08900A9411DC3D467C
:1044280007460820ED4909F062FDF248067808F0D1
:1044380017FE3878002C069500D18FE0344600230B
:1044480093E005950826EA49304609F050FDA01F7B
:1044580043424341E7480078049038784006820F89
:10446800E549E64D03963046A8478007400E39785F
:104478009F220A4010183870E01F43424341CA097E
:104488001020DF49A847C0013E787F213140081835
:104498003870204608384342434107252E401820EB
:1044A800D8493246D54CA04728403978F8220A40E6
:1044B80011183970B0420A9E09D00921079A514350
:1044C800C74A5118D04A059B8B5489184B7000284D
:1044D800099C6CD02020CD4909F009FD3978294084
:1044E80028200A27022900D106E1012900D01BE172
:1044F8000690092007994843B9490818C249425CFF
:1045080045186878000280187D218E000A990929CB
:104518000BD100B232460B320021022303F024F9FA
:104528002870010A697004990591F11D02B28A4246
:1045380000DCFDE06C203E462024B74A2146059F5A
:104548003B4609F027FA28783530C2B27820214650
:104558003B4604F0BDF8089D099C1AE140B25E2173
:1045680008F060FD387034463346C2B26020082136
:1045780005F0E8FE387800280A9D22D0401EC0B217
:1045880006F0ECFA06460820A64909F0B0FC08989F
:104598000078252810D38221002200920191253825
:1045A80042B248200821334603F000F809E02020F1
:1045B8000926089D8C4FEEE048200821324609F074
:1045C80048FD09200799484385490E18DF208100D6
:1045D800705C012D099407D1771840B2062108F0C4
:1045E80021FD3870214600E00021C3B2042B04D815
:1045F80000914E2010218D4A05E00091401FC3B262
:104608004E201021884A09F0B1FB022D15D18848A7
:10461800642101700720C701F05DF419012161567A
:10462800090208187D210A028249022303F09CF836
:10463800F055000A6070099B00E000230898007894
:10464800252811D30721C901725C71180127C957A0
:1046580082270093019709028B18253842B27820E7
:10466800182102F0A3FF0BE00720C001315C3018CD
:1046780001228056000242187820182109F0CFFA4A
:104688006D49705C0024032D0AD1771840B21521BA
:10469800C943162208F04EFD3870099F3B4601E0D9
:1046A8002346099F42B26020202106F0ABF96349F6
:1046B800705C042D06D1761840B2212108F0B2FCB6
:1046C800307000E02746069CC2B2602028213B4695
:1046D80007F08EFF681F434243412078C006820FCF
:1046E8003020574905F004FC8007C00E2178E722E6
:1046F8000A40101820706FE0059706900920079966
:104708004843374908184049425C45186878000210
:104718008018092E16D140B20F2108F083FC002121
:104728006970287004990EE0089D3E462E4F32E0CD
:10473800B24214DD0C30C2B26C202021059B07F078
:10474800B5FF23E00021089D274F0091C3B25A20EE
:1047580020212F4A09F00AFB0698059E1BE07820C5
:104768002021059E334609F05AFA002E0ED03E4607
:10477800099C802C05D1287869780902081807F067
:10478800EDFF244800210170089D02E0089D099C66
:104798003E46154F06982149069009F0A8FB0A984D
:1047A800864213D1802C0BD106460921284609F0F0
:1047B8003AFB1848002101700A2E01D1039838707D
:1047C800049B04E0A5F80000AC0C0020002348205E
:1047D800134A069909F0DEF80BB0F0BDEBF10000C2
:1047E8009A0500207F0300009A0C00207B0300003C
:1047F800AFF20000C70C002042F50000F99E00004F
:1048080099F800002CF500008203000017F9000059
:1048180094EB00006F0C002082FB0000C6FA000039
:104828006BF900002FFB0000BFF6000022EB000030
:10483800BE0C00200083FFFF7D0300007E03000004
:044848003CF300003D
:10484C00F0B583B0E04E0125357006F0DBFB00249B
:10485C00DE480157002907D5DD4A13783746F02684
:10486C001E40331D3E461370D94F3A78142A35D862
:10487C005200C0467A449288520097449A009A009B
:10488C009A0083006F000201020102010201020181
:10489C0002010201020102010201020114001400D2
:1048AC0014000201060107F0DDFD032009F0D8FB1E
:1048BC00C02009F04BFA08F0F3FA3878401C387035
:1048CC0038780F210140032903D33878F0210140B7
:1048DC0039703878202101433970D2E010462038E5
:1048EC00032866D31046303803281DD2252007F044
:1048FC0095FEB8480178BC2900D0C2E0417A012964
:10490C0000D0BEE04279C1490A703A78F0231340D6
:10491C00DA1C3A70BB4A00231370027ACA70C2794F
:10492C008A70807948703FE0242A17D0342A00D04E
:10493C00A7E00024204609F09FF8800600D5EFE0A0
:10494C00252007F06BFEA34E717A3078AA2800D090
:10495C00DFE0FC2900D0DCE00120DFE0A74D287867
:10496C00411C2970A6490C5CA048007803F0F0F9B2
:10497C003878DF21014039702878102871D3002055
:10498C00287070E09F4A13785B1C1370DAB2042A0B
:10499C000FD33A78F02313401A1D3A70974A01232B
:1049AC0013708022114301703878DF210140397077
:1049BC0067E0884CFF202072E071A07160710020CC
:1049CC00A0728549096861700A0E22710A0CE270A6
:1049DC00090AA1703E788A49102804D022180B5C71
:1049EC00D372401CF8E720461B300A21FF2209F045
:1049FC0019FA2520002121540F200640751E032D85
:104A0C001CD2BC202070032E0ED18048017861711D
:104A1C00C17821728178E1714078A07120460B3009
:104A2C001021FF2209F0FEF9802020770120E0768A
:104A3C00022D654E00D30225657206E0002E624EF3
:104A4C0003D101206072BB2020703878DF21014037
:104A5C0039706D480078C00701D00D2401E0732037
:104A6C00C44307F073FFE1B2252006F0B1FE08F055
:104A7C0017FA65480178491C01705D480188491C8A
:104A8C0001800020307003B0F0BD07F0EBFC28462D
:104A9C0009F0E6FAC02009F059F938782021029182
:104AAC0008433870524800880190524909F005FAC1
:104ABC004E424E415049019809F0FFF9002900D0AF
:104ACC0075004A48057008F0EBF9454805684368DD
:104ADC0042492B2C18D0085D002802D0401E0855E6
:104AEC0010E001200021224626463C461F4609F0D4
:104AFC00E5F83B46274634468B43384985433848CE
:104B0C0005604360641CE4E7387802990843387008
:104B1C000AE0AA280AD1FD2908D1022033490870DD
:104B2C003878DF2101403970274EAAE7AA2801D036
:104B3C00AC28F5D1701C284904252A4608F041FF01
:104B4C0002903249701D2A4608F03BFF0299084337
:104B5C00E6D11D2008F090FF2049FF220A71204960
:104B6C000A68102313430B603C2800D83C201D4DD1
:104B7C0029691D4A1368591A08181060642108F035
:104B8C00B5FE28613078AA281BD0AC28C8D1344691
:104B9C000934A01B08381928C2DC2078FF28BFD0A4
:104BAC00A578AC21204603F043FC2819C41CF0E77F
:104BBC00301909300178FF29B2D0AA2103F038FC52
:104BCC00241D1C2CF4D1ABE7C10C0020720C00206E
:104BDC00C00C0020B80000207C010020DF0B00205E
:104BEC0000F8FF1F08FFFF1FD80C0020A60C0020A8
:104BFC008C05002021060000210500007B0C002004
:104C0C000A0C00208A0C0020760C00208009002061
:104C1C00F0B58CB01F246102CB48426B0A4342634F
:104C2C000121CA06836B13438363C84BDA681020D7
:104C3C000A900243DA60C64DAA69C64E3240AA6198
:104C4C006A6832406A606A6932406A61C248826846
:104C5C0032408260C14A956D35409565556F35403F
:104C6C00556705683540056016259D60DD680D4368
:104C7C000E27BD43DD60002506951D6247255D624C
:104C8C001C605C6A80250B952C4340250995AC4330
:104C9C005C621C682406FCD50F2007900304B04E00
:104CAC00746D9C4374650B02AE4C23646364A36403
:104CBC00E364756D3D4375656360A360E360202517
:104CCC00ED437561A8480361756D0D437565C84367
:104CDC000490356C0540356423608D07A34C6769DF
:104CEC002F4367612768AF432760936775690A98FC
:104CFC00054375613568054335609B48C360CF0734
:104D0C0065693D430897656125683D432560D36718
:104D1C004D0377692F43776137682F4337600363FF
:104D2C00934F7D6D0B9805437D653D6C05433D644C
:104D3C00874DEB6107988504104662692A436261CE
:104D4C002268AA4322608364C364036543650546F5
:104D5C000320029000022A6C024305902A646A6CBC
:104D6C0002436A64079802027D6915437D613D68C0
:104D7C0095433D607848036243628362C3627A6DF7
:104D8C00049802407A65724803607A690225AA4346
:104D9C007A61714A53607A6D0A9DAA437A65036100
:104DAC000A037569154375613568954335606E481E
:104DBC00C36288050190644E326B02433263480231
:104DCC00654A9061039050616A4D12200490A8705E
:104DDC0019226A702970684A083A10680791674965
:104DEC00084010600798800265490860A878099A05
:104DFC001043A87078690A9A104378613868104398
:104E0C003860554D2B61786D042210437865386CF1
:104E1C00904338644E498B605A48026078690B9A0B
:104E2C0010437861386810433860EB617869082268
:104E3C0010437861386890433860EB606069029D7C
:104E4C00284360612068A8432060444803604360A5
:104E5C00CB60494BD8684C49084008994018D86039
:104E6C00474C21600799CF05B06B3843B0630520E0
:104E7C000A9000020090DB30444A106095609F203D
:104E8C001061072090611D4658683C4A1040C019BB
:104E9C0058602346019820603D48069C04603D48BC
:104EAC0030604806B26B0243B2633B483B4A8260B7
:104EBC002A68324F3A402A608A041A6049220260FA
:104ECC003148401CB26B0243B2633548354A8260AC
:104EDC00FF2212022F689743CA03BA182A604A04A9
:104EEC001A6004608B06B26B1A43B2632E4F2F4AC2
:104EFC00BA60FC602E4A3A611B48059A026032681F
:104F0C001A433260039A426028681F4A1040089A7C
:104F1C0080182860C8041A4908603C60306B0999F5
:104F2C00084330630D480099416601662148049995
:104F3C0001700B99417020482049416084600A99A6
:104F4C0001600CB0F0BDC0460480044000B00340CA
:104F5C0000C00440FFF8FFFE00B0044000D0044045
:104F6C0000F00F4000A004400490044000F10F40FA
:104F7C0080F00F400160074010E400E0FFFF00FFED
:104F8C0000E100E0C40000F8FFFFFF0000710340E7
:104F9C00007003400000010100900340FF0B000073
:104FAC00008003403B2D000000A00340FFFF0000E9
:104FBC0060EA00000160064010E000E07FBB0000EA
:104FCC0030B581B007F040FE00282ED0C34A90784F
:104FDC0001461C3905292ED9022800D1AAE0072840
:104FEC0000D10DE1082800D118E13A2800D15EE18A
:104FFC00142841D10024BE4D0A2C1AD0E01CC0B29A
:10500C006946012207F0B2F800280CD00099062C52
:10501C0006D1082902D88800295800E00021009107
:10502C00E0B206F01BFF641CE6E7AB480168491CC4
:10503C00016001B030BDC0467944097949008F4404
:10504C0003224B1B1B02F4E704206D460124294666
:10505C00224607F08BF807202946224607F086F8EF
:10506C000028E6D0AC20A049009A0A50E0029F49E3
:10507C004A6802434A60DCE7911C5278521ED2B255
:10508C0003F046FCD5E704206D4601242946224650
:10509C0007F06CF807202946224607F067F800282D
:1050AC0007D080209049009A0A50904841682143CB
:1050BC00416008206946012207F058F80028B8D052
:1050CC000A20009941439820874A1150874841682B
:1050DC0040220A434260ACE703206946022207F0F3
:1050EC0045F8002808D0804800994165012040050A
:1050FC007E490A6802430A6005206946022207F0CD
:10510C0035F8002808D07848009901650120000581
:10511C0076490A6802430A6007206946022207F0B2
:10512C0025F8002800D184E76F480099816501209B
:10513C008005B7E003206946042207F017F8002821
:10514C000BD00098642108F074FB8421664A5050FF
:10515C006648416802220A434260072069460424DB
:10516C00224607F003F800280AD00098642108F0C2
:10517C0060FB88215C4A50505C4841682143416087
:10518C000B206946022206F0F1FF002808D0564891
:10519C00009901660120000654490A6802430A601E
:1051AC000D206946022206F0E1FF002808D04E4887
:1051BC0000994163012040034C490A6802430A608C
:1051CC000F206946022206F0D1FF00280AD0494878
:1051DC00009908188C21444A5050444841680822D0
:1051EC000A434260112069460124224606F0BEFFA4
:1051FC00002800D11DE73C4800990164200451E0CF
:10520C0003206946022206F0B1FF002800D110E706
:10521C0035480099C1650120C00543E0032069466B
:10522C00022206F0A3FF002809D00A20009941436E
:10523C002D4841612D48016820220A430260052057
:10524C006946022206F092FF00280AD00A20009933
:10525C004143254881620120800224490A680243A7
:10526C000A6007206946032206F080FF00280AD056
:10527C000A20009941431C480163012000031B498B
:10528C000A6802430A600A246946012520462A4618
:10529C0006F06CFF002800D1CBE60098444312487E
:1052AC00C462E80211490A6802430A60C1E6D07878
:1052BC00EA2800D0BDE65079102800D0B9E60620C7
:1052CC0007490424224606F051FF0A2005492246CC
:1052DC0006F04CFFADE6C04644010020840A0020D5
:1052EC00540100205801002008FFFF1F00F8FF1F89
:0852FC0090CB000018FCFFFF3D
:10530400F0B587B00290B44808F0EBFDB34E3478A2
:10531400B3480078002804D1B0480F220299FAF764
:10532400CDFE0025AF49284608F0E3FD07F010FD47
:1053340002B266202F46294608F08DFE3678AA4927
:105344000878022803D100200870A8490870A848EA
:105354000278511CC9B28E4203D2721E0AD20022B4
:1053640008E0111DC9B28E4204D9321FD1B20A29F4
:1053740000D30A2261B2019102709E499B4D03A899
:1053840054C0F8B2062832D2B818C4B2351B6B42E6
:105394006B41401CC2B2F8001030C6B21220314634
:1053A40008F050FC2D209349085C844204D101206C
:1053B4002A22314608F036FE06960F262046964CE1
:1053C4002146324605F0B8FE68426841874D297887
:1053D400014010310091182006992246334608F006
:1053E4007AFB7F1C049C059E8249039AC9E77C488A
:1053F4000078002807D02D27C95D784800788142BD
:105404001AD07E2519E0029A1046643802286CD31B
:10541400602A79D0BF2A00D199E06E2A74D0812AFB
:1054240000D1A0E0612A00D0B8E02878012800D09B
:10543400CFE000202870CCE0592508F0DDFD0028DD
:1054440001D16920C5434F206A49085C400701D453
:105454003F200540E9B268480A2203F099F8012880
:10546400624D00D09AE05E488678052E5ED8B00082
:1054740001A108588746C0461D55000095540000F8
:10548400955400002755000031550000395500009F
:10549400524805785748C5555A480127077002985D
:1054A40007F0D8FC07F06AFA284601F0DBF8564802
:1054B400C17802220A43C270384607F083F807F025
:1054C4005DFA06F027FA03F089FB5048807A08F069
:1054D4007FFD07F08FFA42480078022801D0022E9F
:1054E40057D14B4807F084FB56E02D20085C3B491C
:1054F400097888423BD11046642A01D065284DD1F1
:10550400434807F075FB49E04248002707702878B4
:10551400012835D12F705CE03D4807F069FB059EFA
:105524003CE03648059E067001200AE00120287000
:10553400059E36E0029807F08DFC3048059E067003
:105544000020294908702E4806F00EFF26E00020AE
:10555400234A107028702D20085C2049087001200F
:1055640002F05CFD1AE0012007F0B8F816E0022012
:105574001B4F3870104607F06DFC002078700DE06A
:10558400012017490870029807F064FC144847701A
:1055940004E0012007F0A2F8059E144D28780128A4
:1055A40017D10198B04214D0601CC0B2711CC9B2AA
:1055B40006F018FC2D200F4A115C8E4201D11454C0
:1055C40004E0019A8A4204D10A490E54012006F0EB
:1055D400F9FF07B0F0BDC04609FA0000950C0020A1
:1055E400570C002013FB0000CE0C0020960C00206A
:1055F400690C0020040B002063F20000CD0C002095
:10560400D99B0000C20C0020EC0C00209A0500205D
:0C561400110400006F0C002016040020A0
:10562000F0B589B0B7498879401C88710020012104
:105630000491B64FC5B2012D00D9F0E0002D03D082
:10564000B648B749401802E0B348B44908180024E6
:10565000005729017E180028049B1BD016280CDB5C
:10566000153840B208F0D0FCB1798142049B11D0CA
:10567000B11D0028087005D10CE008F0C5FC002819
:10568000049B07D0002D02D008F0D8FC01E007F001
:10569000E1FC2346052169439B480191401806908F
:1056A0008778FE203840022801D19E4884889E4891
:1056B0000078002800D09D4C0594032006990C56D4
:1056C000042F05D378009A494018083800880590BF
:1056D0000122002F00940292039332D0162C23DB78
:1056E000F07831880143874A9079084391880143D3
:1056F000B0780843B11C002801D100200870153C87
:1057000060B20C4608F080FC2246002808D01178D0
:10571000002905D1F11C0A785342534122460B70EF
:105720001070039B029A0CE0002C09D020463C46E6
:105730001F4608F069FC029A3B462746F07000E0DD
:10574000F2703088F178002901D1014608E0910219
:10575000059A12B251188A0E89188911C9B24118D6
:10576000684C002B00D10146318007F067FDA1880D
:10577000401A80B2642850D3A279318807A808F073
:1057800097F9079808993180002D059005D00021E0
:10579000A171211D6420039B05E02188491C218003
:1057A000A11C039B02980A8812180A80059800061B
:1057B00002D03189491C3181002B06D0F11C0978B7
:1057C000002902D0B188491CB1807189400E0A18A5
:1057D00072814D480199405C069949780902081880
:1057E000B08131460C31002F034610D0012F04D177
:1057F000009A002A08D0B28807E0022F01D8328927
:1058000003E092B2120900E06288831A0B80069AC4
:105810001279002A01D0C01A0880681C09E7B889EB
:10582000F989814268D0384B19785A781D79F88106
:10583000FB78002B60D012025118002D00D0081AFE
:1058400006B23C4C2078400723D5002921D00A2EEF
:1058500007D0B0B2142807D01E2808D1192029215A
:105860000BE01B202B2108E01A202A2105E0052E41
:1058700044DC002E03D4F1B21C2007F08BFA04980C
:10588000002806D020780821014002D0204832218B
:105890000180002E01D4304600E0B889002D00D1EF
:1058A000304601B207A83C2208F002F920788007B0
:1058B00015D50898002812D1607A800703D40020FB
:1058C00007F0BEFB05E00798002802D000B208F000
:1058D00035FA2078000702D50D4832210180B889B9
:1058E0000C49884208D31C2007F0AAFB2078000747
:1058F00002D507483221018009B0F0BD0020049094
:10590000BDE7C04678050020300C0020A40400202C
:1059100088050020F6FF0000710300009A050020B2
:10592000720300004C050020B90C002000FCFFFFB2
:08593000C40400204A0B002012
:10593800F0B587B0044640782378834200D067E109
:10594800222900D964E1B74800788006400F490051
:105958007944898849008F44220026002B002F00B3
:1059680040005900750083009A00B600BC00E400AE
:10597800E900EF00F100F300F900FB000C01110150
:1059880017011D01250127012F0131014D013301A7
:1059980053015D01350139013D01430147013020C3
:1059A8000090462119E1302000904621142215E18B
:1059B800A22000906421FCE02A20059000905F2539
:1059C800052602200690964F204629463246069B19
:1059D800B847212000900A2369E0C2200090502196
:1059E8000A2503268E4F20462A463346B8474220CA
:1059F80000903C2120462A463346B8472020009094
:105A08004621012320462A46B84701E1212000907B
:105A180006460690462105220123814D2046A847C7
:105A2800009632210F25022620462A4633467C4F0F
:105A3800B84706980090502120462A463346784CAD
:105A4800A047E5E0222000906E210525012620468A
:105A58002A46334603F070FC232000907C2184E022
:105A680000270097322105256D4E20462A462B46F1
:105A7800B04700975A2120462A462B46B0470220B5
:105A880000906E21032204232046B047C0E0232063
:105A980005900090502505260A200690604F204664
:105AA80029463246069BB8472120009014232046F9
:105AB80029463246B847059800902046294632467E
